{
  "transactions": [
    {
      "hash": "0x0817ef1da355ab61ee52e2acf125494ff9df30120ac3ac90e7075c4cf3ae8170",
      "transactionType": "CALL",
      "contractName": null,
      "contractAddress": "0x582bec27d96ada0e958048208dd2953a6b642c6e",
      "function": "createInvitation(uint64,address,uint256,bytes)",
      "arguments": [
        "10344971235874465080",
        "0x53D1D42c154934FF03Ed26579BB88C9A4834F698",
        "1",
        "0x7c86662e830fb67caa9de159bba5a0000ecb42092f7551f434879cdf26bb86db70d3946847ea5a5a67e0b7c63b60b5c34b73b0ac4c2f54984f0156dfbd0f0c9a1c"
      ],
      "transaction": {
        "from": "0x842dc0443ac0cc6423bb7d64cf54d4e4b6a244de",
        "to": "0x582bec27d96ada0e958048208dd2953a6b642c6e",
        "gas": "0xc30e4",
        "value": "0x0",
        "input": "0x31ac8f6c0000000000000000000000000000000000000000000000008f90b8876dee653800000000000000000000000053d1d42c154934ff03ed26579bb88c9a4834f6980000000000000000000000000000000000000000000000000000000000000001000000000000000000000000000000000000000000000000000000000000008000000000000000000000000000000000000000000000000000000000000000417c86662e830fb67caa9de159bba5a0000ecb42092f7551f434879cdf26bb86db70d3946847ea5a5a67e0b7c63b60b5c34b73b0ac4c2f54984f0156dfbd0f0c9a1c00000000000000000000000000000000000000000000000000000000000000",
        "nonce": "0x9",
        "chainId": "0xaa36a7"
      },
      "additionalContracts": [],
      "isFixedGasLimit": false
    }
  ],
  "receipts": [
    {
      "status": "0x1",
      "cumulativeGasUsed": "0x1bc8ede",
      "logs": [
        {
          "address": "0x878c92fd89d8e0b93dc0a3c907a2adc7577e39c5",
          "topics": [
            "0x38b331f00373c8b0f9af5a4273ca1b91e894fec999bfa4ec787e8c90a5c8b05c"
          ],
          "data": "0x00000000000000000000000000000000000000000000000000000000000003f100000000000000000000000000000000000000000000000000000000000000400000000000000000000000000000000000000000000000000000000000000000",
          "blockHash": "0x865f36ae8f49b4ee2316350d27cef0d5d83067c686801780c483626c7658fbc0",
          "blockNumber": "0x6c239a",
          "transactionHash": "0x0817ef1da355ab61ee52e2acf125494ff9df30120ac3ac90e7075c4cf3ae8170",
          "transactionIndex": "0x73",
          "logIndex": "0xde",
          "removed": false
        },
        {
          "address": "0x779877a7b0d9e8603169ddbd7836e478b4624789",
          "topics": [
            "0x8c5be1e5ebec7d5bd14f71427d1e84f3dd0314c0f7b2291e5b200ac8c7c3b925",
            "0x000000000000000000000000582bec27d96ada0e958048208dd2953a6b642c6e",
            "0x0000000000000000000000000bf3de8c5d3e8a2b34d2beeb17abfcebaf363a59"
          ],
          "data": "0x0000000000000000000000000000000000000000000000000074849c55490055",
          "blockHash": "0x865f36ae8f49b4ee2316350d27cef0d5d83067c686801780c483626c7658fbc0",
          "blockNumber": "0x6c239a",
          "transactionHash": "0x0817ef1da355ab61ee52e2acf125494ff9df30120ac3ac90e7075c4cf3ae8170",
          "transactionIndex": "0x73",
          "logIndex": "0xdf",
          "removed": false
        },
        {
          "address": "0x779877a7b0d9e8603169ddbd7836e478b4624789",
          "topics": [
            "0xddf252ad1be2c89b69c2b068fc378daa952ba7f163c4a11628f55a4df523b3ef",
            "0x000000000000000000000000582bec27d96ada0e958048208dd2953a6b642c6e",
            "0x0000000000000000000000008f35b097022135e0f46831f798a240cc8c4b0b01"
          ],
          "data": "0x0000000000000000000000000000000000000000000000000074849c55490055",
          "blockHash": "0x865f36ae8f49b4ee2316350d27cef0d5d83067c686801780c483626c7658fbc0",
          "blockNumber": "0x6c239a",
          "transactionHash": "0x0817ef1da355ab61ee52e2acf125494ff9df30120ac3ac90e7075c4cf3ae8170",
          "transactionIndex": "0x73",
          "logIndex": "0xe0",
          "removed": false
        },
        {
          "address": "0x779877a7b0d9e8603169ddbd7836e478b4624789",
          "topics": [
            "0x8c5be1e5ebec7d5bd14f71427d1e84f3dd0314c0f7b2291e5b200ac8c7c3b925",
            "0x000000000000000000000000582bec27d96ada0e958048208dd2953a6b642c6e",
            "0x0000000000000000000000000bf3de8c5d3e8a2b34d2beeb17abfcebaf363a59"
          ],
          "data": "0x0000000000000000000000000000000000000000000000000000000000000000",
          "blockHash": "0x865f36ae8f49b4ee2316350d27cef0d5d83067c686801780c483626c7658fbc0",
          "blockNumber": "0x6c239a",
          "transactionHash": "0x0817ef1da355ab61ee52e2acf125494ff9df30120ac3ac90e7075c4cf3ae8170",
          "transactionIndex": "0x73",
          "logIndex": "0xe1",
          "removed": false
        },
        {
          "address": "0x8f35b097022135e0f46831f798a240cc8c4b0b01",
          "topics": [
            "0xd0c3c799bf9e2639de44391e7f524d229b2b55f5b1ea94b2bf7da42f7243dddd"
          ],
          "data": "0x0000000000000000000000000000000000000000000000000000000000000020000000000000000000000000000000000000000000000000de41ba4fc9d91ad9000000000000000000000000582bec27d96ada0e958048208dd2953a6b642c6e00000000000000000000000053d1d42c154934ff03ed26579bb88c9a4834f69800000000000000000000000000000000000000000000000000000000000000620000000000000000000000000000000000000000000000000000000000030d4000000000000000000000000000000000000000000000000000000000000000000000000000000000000000000000000000000000000000000000000000000000000000000000000000000000779877a7b0d9e8603169ddbd7836e478b46247890000000000000000000000000000000000000000000000000074849c5549005500000000000000000000000000000000000000000000000000000000000001a000000000000000000000000000000000000000000000000000000000000002c000000000000000000000000000000000000000000000000000000000000002e05a64e74b1b10ff4857ce1e0e5c649d978fd48bf209996a7cbe62f44b0e5b013100000000000000000000000000000000000000000000000000000000000001000000000000000000000000000000000000000000000000000000000000000001000000000000000000000000842dc0443ac0cc6423bb7d64cf54d4e4b6a244de000000000000000000000000000000000000000000000000000000000000008000000000000000000000000000000000000000000000000000000000000003f100000000000000000000000000000000000000000000000000000000000000417c86662e830fb67caa9de159bba5a0000ecb42092f7551f434879cdf26bb86db70d3946847ea5a5a67e0b7c63b60b5c34b73b0ac4c2f54984f0156dfbd0f0c9a1c0000000000000000000000000000000000000000000000000000000000000000000000000000000000000000000000000000000000000000000000000000000000000000000000000000000000000000000000000000000000000000000000",
          "blockHash": "0x865f36ae8f49b4ee2316350d27cef0d5d83067c686801780c483626c7658fbc0",
          "blockNumber": "0x6c239a",
          "transactionHash": "0x0817ef1da355ab61ee52e2acf125494ff9df30120ac3ac90e7075c4cf3ae8170",
          "transactionIndex": "0x73",
          "logIndex": "0xe2",
          "removed": false
        },
        {
          "address": "0x582bec27d96ada0e958048208dd2953a6b642c6e",
          "topics": [
            "0x5c14165f6856a1581f59f3ac16bfaa8f38675bf8a7c662ebcb8aa362151df9e0",
            "0x5a64e74b1b10ff4857ce1e0e5c649d978fd48bf209996a7cbe62f44b0e5b0131",
            "0x0000000000000000000000000000000000000000000000008f90b8876dee6538"
          ],
          "data": "0x00000000000000000000000053d1d42c154934ff03ed26579bb88c9a4834f698000000000000000000000000779877a7b0d9e8603169ddbd7836e478b46247890000000000000000000000000000000000000000000000000000000000000001000000000000000000000000842dc0443ac0cc6423bb7d64cf54d4e4b6a244de0000000000000000000000000000000000000000000000000074849c55490055",
          "blockHash": "0x865f36ae8f49b4ee2316350d27cef0d5d83067c686801780c483626c7658fbc0",
          "blockNumber": "0x6c239a",
          "transactionHash": "0x0817ef1da355ab61ee52e2acf125494ff9df30120ac3ac90e7075c4cf3ae8170",
          "transactionIndex": "0x73",
          "logIndex": "0xe3",
          "removed": false
        },
        {
          "address": "0x582bec27d96ada0e958048208dd2953a6b642c6e",
          "topics": [
            "0xe93bbd15ca47283a6360c516a31feb98e23705efee4ce064ed91aeb0de6ab827"
          ],
          "data": "0x5a64e74b1b10ff4857ce1e0e5c649d978fd48bf209996a7cbe62f44b0e5b013100000000000000000000000000000000000000000000000000000000000003f1",
          "blockHash": "0x865f36ae8f49b4ee2316350d27cef0d5d83067c686801780c483626c7658fbc0",
          "blockNumber": "0x6c239a",
          "transactionHash": "0x0817ef1da355ab61ee52e2acf125494ff9df30120ac3ac90e7075c4cf3ae8170",
          "transactionIndex": "0x73",
          "logIndex": "0xe4",
          "removed": false
        }
      ],
      "logsBloom": "0x00000004000040000000000000000000000000000000200000000000008000000000000000000000000000000002040000000000000040000040000000240000000000000000000000000008000000000000000402000000000000000000200000000000000100000000000010000000000000000800000100000010000008004008800000000000000000000000800000000000000000000000000000000000020000000000080400008000000000000000000000000000000100000001000000000002000000140000000000080000000002000000000100000000000000000010000000000000400004000000000004008000100000000200000000100000",
      "type": "0x2",
      "transactionHash": "0x0817ef1da355ab61ee52e2acf125494ff9df30120ac3ac90e7075c4cf3ae8170",
      "transactionIndex": "0x73",
      "blockHash": "0x865f36ae8f49b4ee2316350d27cef0d5d83067c686801780c483626c7658fbc0",
      "blockNumber": "0x6c239a",
      "gasUsed": "0x855f2",
      "effectiveGasPrice": "0x14738f01",
      "from": "0x842dc0443ac0cc6423bb7d64cf54d4e4b6a244de",
      "to": "0x582bec27d96ada0e958048208dd2953a6b642c6e",
      "contractAddress": null
    }
  ],
  "libraries": [],
  "pending": [],
  "returns": {},
  "timestamp": 1731737594,
  "chain": 11155111,
  "commit": "a186cdf6"
}