{
  "transactions": [
    {
      "hash": "0x4d5393edf579aeb870dc0cbf3670ee23abdbb267c0c31d9c2d8e5e0167b51ac4",
      "transactionType": "CALL",
      "contractName": null,
      "contractAddress": "0x53d1d42c154934ff03ed26579bb88c9a4834f698",
      "function": "createInvitation(uint64,address,uint256,bytes)",
      "arguments": [
        "10344971235874465080",
        "0xd156Df8f882F09Cc76431cd958c364D053B9694c",
        "1",
        "0x96bfd20f3db1f6e78bfec633ec3968c7ceffbf335968474a7103172ba565c30c4a46fa53f2016e5dd5674c0a9ca7e571f793d49fde637eb62e257fce344e32251b"
      ],
      "transaction": {
        "from": "0x842dc0443ac0cc6423bb7d64cf54d4e4b6a244de",
        "to": "0x53d1d42c154934ff03ed26579bb88c9a4834f698",
        "gas": "0xba24c",
        "value": "0x0",
        "input": "0x31ac8f6c0000000000000000000000000000000000000000000000008f90b8876dee6538000000000000000000000000d156df8f882f09cc76431cd958c364d053b9694c00000000000000000000000000000000000000000000000000000000000000010000000000000000000000000000000000000000000000000000000000000080000000000000000000000000000000000000000000000000000000000000004196bfd20f3db1f6e78bfec633ec3968c7ceffbf335968474a7103172ba565c30c4a46fa53f2016e5dd5674c0a9ca7e571f793d49fde637eb62e257fce344e32251b00000000000000000000000000000000000000000000000000000000000000",
        "nonce": "0xe",
        "chainId": "0xaa36a7"
      },
      "additionalContracts": [],
      "isFixedGasLimit": false
    }
  ],
  "receipts": [
    {
      "status": "0x1",
      "cumulativeGasUsed": "0xc8433e",
      "logs": [
        {
          "address": "0x878c92fd89d8e0b93dc0a3c907a2adc7577e39c5",
          "topics": [
            "0x38b331f00373c8b0f9af5a4273ca1b91e894fec999bfa4ec787e8c90a5c8b05c"
          ],
          "data": "0x00000000000000000000000000000000000000000000000000000000000003f400000000000000000000000000000000000000000000000000000000000000400000000000000000000000000000000000000000000000000000000000000000",
          "blockHash": "0x443dc2c985049075caa66e6704e2eead3fec662a99ca42cfa318f8d940535879",
          "blockNumber": "0x6c2712",
          "transactionHash": "0x4d5393edf579aeb870dc0cbf3670ee23abdbb267c0c31d9c2d8e5e0167b51ac4",
          "transactionIndex": "0x43",
          "logIndex": "0x4b",
          "removed": false
        },
        {
          "address": "0x779877a7b0d9e8603169ddbd7836e478b4624789",
          "topics": [
            "0x8c5be1e5ebec7d5bd14f71427d1e84f3dd0314c0f7b2291e5b200ac8c7c3b925",
            "0x00000000000000000000000053d1d42c154934ff03ed26579bb88c9a4834f698",
            "0x0000000000000000000000000bf3de8c5d3e8a2b34d2beeb17abfcebaf363a59"
          ],
          "data": "0x000000000000000000000000000000000000000000000000007480cb9026a80b",
          "blockHash": "0x443dc2c985049075caa66e6704e2eead3fec662a99ca42cfa318f8d940535879",
          "blockNumber": "0x6c2712",
          "transactionHash": "0x4d5393edf579aeb870dc0cbf3670ee23abdbb267c0c31d9c2d8e5e0167b51ac4",
          "transactionIndex": "0x43",
          "logIndex": "0x4c",
          "removed": false
        },
        {
          "address": "0x779877a7b0d9e8603169ddbd7836e478b4624789",
          "topics": [
            "0xddf252ad1be2c89b69c2b068fc378daa952ba7f163c4a11628f55a4df523b3ef",
            "0x00000000000000000000000053d1d42c154934ff03ed26579bb88c9a4834f698",
            "0x0000000000000000000000008f35b097022135e0f46831f798a240cc8c4b0b01"
          ],
          "data": "0x000000000000000000000000000000000000000000000000007480cb9026a80b",
          "blockHash": "0x443dc2c985049075caa66e6704e2eead3fec662a99ca42cfa318f8d940535879",
          "blockNumber": "0x6c2712",
          "transactionHash": "0x4d5393edf579aeb870dc0cbf3670ee23abdbb267c0c31d9c2d8e5e0167b51ac4",
          "transactionIndex": "0x43",
          "logIndex": "0x4d",
          "removed": false
        },
        {
          "address": "0x779877a7b0d9e8603169ddbd7836e478b4624789",
          "topics": [
            "0x8c5be1e5ebec7d5bd14f71427d1e84f3dd0314c0f7b2291e5b200ac8c7c3b925",
            "0x00000000000000000000000053d1d42c154934ff03ed26579bb88c9a4834f698",
            "0x0000000000000000000000000bf3de8c5d3e8a2b34d2beeb17abfcebaf363a59"
          ],
          "data": "0x0000000000000000000000000000000000000000000000000000000000000000",
          "blockHash": "0x443dc2c985049075caa66e6704e2eead3fec662a99ca42cfa318f8d940535879",
          "blockNumber": "0x6c2712",
          "transactionHash": "0x4d5393edf579aeb870dc0cbf3670ee23abdbb267c0c31d9c2d8e5e0167b51ac4",
          "transactionIndex": "0x43",
          "logIndex": "0x4e",
          "removed": false
        },
        {
          "address": "0x8f35b097022135e0f46831f798a240cc8c4b0b01",
          "topics": [
            "0xd0c3c799bf9e2639de44391e7f524d229b2b55f5b1ea94b2bf7da42f7243dddd"
          ],
          "data": "0x0000000000000000000000000000000000000000000000000000000000000020000000000000000000000000000000000000000000000000de41ba4fc9d91ad900000000000000000000000053d1d42c154934ff03ed26579bb88c9a4834f698000000000000000000000000d156df8f882f09cc76431cd958c364d053b9694c00000000000000000000000000000000000000000000000000000000000000650000000000000000000000000000000000000000000000000000000000030d4000000000000000000000000000000000000000000000000000000000000000000000000000000000000000000000000000000000000000000000000000000003000000000000000000000000779877a7b0d9e8603169ddbd7836e478b4624789000000000000000000000000000000000000000000000000007480cb9026a80b00000000000000000000000000000000000000000000000000000000000001a000000000000000000000000000000000000000000000000000000000000002c000000000000000000000000000000000000000000000000000000000000002e0ae737f1126e78d393da942fa4114ec48fbcc1b03c06d48adca11264369423c6500000000000000000000000000000000000000000000000000000000000001000000000000000000000000000000000000000000000000000000000000000001000000000000000000000000842dc0443ac0cc6423bb7d64cf54d4e4b6a244de000000000000000000000000000000000000000000000000000000000000008000000000000000000000000000000000000000000000000000000000000003f4000000000000000000000000000000000000000000000000000000000000004196bfd20f3db1f6e78bfec633ec3968c7ceffbf335968474a7103172ba565c30c4a46fa53f2016e5dd5674c0a9ca7e571f793d49fde637eb62e257fce344e32251b0000000000000000000000000000000000000000000000000000000000000000000000000000000000000000000000000000000000000000000000000000000000000000000000000000000000000000000000000000000000000000000000",
          "blockHash": "0x443dc2c985049075caa66e6704e2eead3fec662a99ca42cfa318f8d940535879",
          "blockNumber": "0x6c2712",
          "transactionHash": "0x4d5393edf579aeb870dc0cbf3670ee23abdbb267c0c31d9c2d8e5e0167b51ac4",
          "transactionIndex": "0x43",
          "logIndex": "0x4f",
          "removed": false
        },
        {
          "address": "0x53d1d42c154934ff03ed26579bb88c9a4834f698",
          "topics": [
            "0x5c14165f6856a1581f59f3ac16bfaa8f38675bf8a7c662ebcb8aa362151df9e0",
            "0xae737f1126e78d393da942fa4114ec48fbcc1b03c06d48adca11264369423c65",
            "0x0000000000000000000000000000000000000000000000008f90b8876dee6538"
          ],
          "data": "0x000000000000000000000000d156df8f882f09cc76431cd958c364d053b9694c000000000000000000000000779877a7b0d9e8603169ddbd7836e478b46247890000000000000000000000000000000000000000000000000000000000000001000000000000000000000000842dc0443ac0cc6423bb7d64cf54d4e4b6a244de000000000000000000000000000000000000000000000000007480cb9026a80b",
          "blockHash": "0x443dc2c985049075caa66e6704e2eead3fec662a99ca42cfa318f8d940535879",
          "blockNumber": "0x6c2712",
          "transactionHash": "0x4d5393edf579aeb870dc0cbf3670ee23abdbb267c0c31d9c2d8e5e0167b51ac4",
          "transactionIndex": "0x43",
          "logIndex": "0x50",
          "removed": false
        },
        {
          "address": "0x53d1d42c154934ff03ed26579bb88c9a4834f698",
          "topics": [
            "0xe93bbd15ca47283a6360c516a31feb98e23705efee4ce064ed91aeb0de6ab827"
          ],
          "data": "0xae737f1126e78d393da942fa4114ec48fbcc1b03c06d48adca11264369423c6500000000000000000000000000000000000000000000000000000000000003f4",
          "blockHash": "0x443dc2c985049075caa66e6704e2eead3fec662a99ca42cfa318f8d940535879",
          "blockNumber": "0x6c2712",
          "transactionHash": "0x4d5393edf579aeb870dc0cbf3670ee23abdbb267c0c31d9c2d8e5e0167b51ac4",
          "transactionIndex": "0x43",
          "logIndex": "0x51",
          "removed": false
        }
      ],
      "logsBloom": "0x0000000400004000000000000000000000000000000020000000000000800000000000000000000000000000080200000000000800004000000000000024000000000000000000000000000800000000100000040000200000000000000020000000000000010000000000001000000000000000080000010000001000000800400000000000000000000000000080000000000000000000000000000000000002000000000008040000000000000000000008000000000000010000000100000000000200000014000000000008000000000000000000010000020000000000001000200000000040000400000000000400c000000000000200000000000000",
      "type": "0x2",
      "transactionHash": "0x4d5393edf579aeb870dc0cbf3670ee23abdbb267c0c31d9c2d8e5e0167b51ac4",
      "transactionIndex": "0x43",
      "blockHash": "0x443dc2c985049075caa66e6704e2eead3fec662a99ca42cfa318f8d940535879",
      "blockNumber": "0x6c2712",
      "gasUsed": "0x86c3d",
      "effectiveGasPrice": "0x36611eb2",
      "from": "0x842dc0443ac0cc6423bb7d64cf54d4e4b6a244de",
      "to": "0x53d1d42c154934ff03ed26579bb88c9a4834f698",
      "contractAddress": null
    }
  ],
  "libraries": [],
  "pending": [],
  "returns": {},
  "timestamp": 1731748968,
  "chain": 11155111,
  "commit": "4f7dab86"
}