{
  "transactions": [
    {
      "hash": "0x4a007ab9bbeedf2be2cf4e3b982265f3d7376b4a584d0d8fc10be6b417852b8b",
      "transactionType": "CALL",
      "contractName": null,
      "contractAddress": "0x53d1d42c154934ff03ed26579bb88c9a4834f698",
      "function": "createInvitation(uint64,address,uint256,bytes)",
      "arguments": [
        "10344971235874465080",
        "0xBFCcE88462d3A4190194b68365F833649f90a71b",
        "1",
        "0x96bfd20f3db1f6e78bfec633ec3968c7ceffbf335968474a7103172ba565c30c4a46fa53f2016e5dd5674c0a9ca7e571f793d49fde637eb62e257fce344e32251b"
      ],
      "transaction": {
        "from": "0x842dc0443ac0cc6423bb7d64cf54d4e4b6a244de",
        "to": "0x53d1d42c154934ff03ed26579bb88c9a4834f698",
        "gas": "0xba24c",
        "value": "0x0",
        "input": "0x31ac8f6c0000000000000000000000000000000000000000000000008f90b8876dee6538000000000000000000000000bfcce88462d3a4190194b68365f833649f90a71b00000000000000000000000000000000000000000000000000000000000000010000000000000000000000000000000000000000000000000000000000000080000000000000000000000000000000000000000000000000000000000000004196bfd20f3db1f6e78bfec633ec3968c7ceffbf335968474a7103172ba565c30c4a46fa53f2016e5dd5674c0a9ca7e571f793d49fde637eb62e257fce344e32251b00000000000000000000000000000000000000000000000000000000000000",
        "nonce": "0xd",
        "chainId": "0xaa36a7"
      },
      "additionalContracts": [],
      "isFixedGasLimit": false
    }
  ],
  "receipts": [
    {
      "status": "0x1",
      "cumulativeGasUsed": "0xdafd2d",
      "logs": [
        {
          "address": "0x878c92fd89d8e0b93dc0a3c907a2adc7577e39c5",
          "topics": [
            "0x38b331f00373c8b0f9af5a4273ca1b91e894fec999bfa4ec787e8c90a5c8b05c"
          ],
          "data": "0x00000000000000000000000000000000000000000000000000000000000003f300000000000000000000000000000000000000000000000000000000000000400000000000000000000000000000000000000000000000000000000000000000",
          "blockHash": "0x5dac4948bfc34e85173d80f42ccb33d2caddef3d163f0cc8cae5faee6e5e0c4b",
          "blockNumber": "0x6c258c",
          "transactionHash": "0x4a007ab9bbeedf2be2cf4e3b982265f3d7376b4a584d0d8fc10be6b417852b8b",
          "transactionIndex": "0x56",
          "logIndex": "0x79",
          "removed": false
        },
        {
          "address": "0x779877a7b0d9e8603169ddbd7836e478b4624789",
          "topics": [
            "0x8c5be1e5ebec7d5bd14f71427d1e84f3dd0314c0f7b2291e5b200ac8c7c3b925",
            "0x00000000000000000000000053d1d42c154934ff03ed26579bb88c9a4834f698",
            "0x0000000000000000000000000bf3de8c5d3e8a2b34d2beeb17abfcebaf363a59"
          ],
          "data": "0x0000000000000000000000000000000000000000000000000074799a2cc8c763",
          "blockHash": "0x5dac4948bfc34e85173d80f42ccb33d2caddef3d163f0cc8cae5faee6e5e0c4b",
          "blockNumber": "0x6c258c",
          "transactionHash": "0x4a007ab9bbeedf2be2cf4e3b982265f3d7376b4a584d0d8fc10be6b417852b8b",
          "transactionIndex": "0x56",
          "logIndex": "0x7a",
          "removed": false
        },
        {
          "address": "0x779877a7b0d9e8603169ddbd7836e478b4624789",
          "topics": [
            "0xddf252ad1be2c89b69c2b068fc378daa952ba7f163c4a11628f55a4df523b3ef",
            "0x00000000000000000000000053d1d42c154934ff03ed26579bb88c9a4834f698",
            "0x0000000000000000000000008f35b097022135e0f46831f798a240cc8c4b0b01"
          ],
          "data": "0x0000000000000000000000000000000000000000000000000074799a2cc8c763",
          "blockHash": "0x5dac4948bfc34e85173d80f42ccb33d2caddef3d163f0cc8cae5faee6e5e0c4b",
          "blockNumber": "0x6c258c",
          "transactionHash": "0x4a007ab9bbeedf2be2cf4e3b982265f3d7376b4a584d0d8fc10be6b417852b8b",
          "transactionIndex": "0x56",
          "logIndex": "0x7b",
          "removed": false
        },
        {
          "address": "0x779877a7b0d9e8603169ddbd7836e478b4624789",
          "topics": [
            "0x8c5be1e5ebec7d5bd14f71427d1e84f3dd0314c0f7b2291e5b200ac8c7c3b925",
            "0x00000000000000000000000053d1d42c154934ff03ed26579bb88c9a4834f698",
            "0x0000000000000000000000000bf3de8c5d3e8a2b34d2beeb17abfcebaf363a59"
          ],
          "data": "0x0000000000000000000000000000000000000000000000000000000000000000",
          "blockHash": "0x5dac4948bfc34e85173d80f42ccb33d2caddef3d163f0cc8cae5faee6e5e0c4b",
          "blockNumber": "0x6c258c",
          "transactionHash": "0x4a007ab9bbeedf2be2cf4e3b982265f3d7376b4a584d0d8fc10be6b417852b8b",
          "transactionIndex": "0x56",
          "logIndex": "0x7c",
          "removed": false
        },
        {
          "address": "0x8f35b097022135e0f46831f798a240cc8c4b0b01",
          "topics": [
            "0xd0c3c799bf9e2639de44391e7f524d229b2b55f5b1ea94b2bf7da42f7243dddd"
          ],
          "data": "0x0000000000000000000000000000000000000000000000000000000000000020000000000000000000000000000000000000000000000000de41ba4fc9d91ad900000000000000000000000053d1d42c154934ff03ed26579bb88c9a4834f698000000000000000000000000bfcce88462d3a4190194b68365f833649f90a71b00000000000000000000000000000000000000000000000000000000000000640000000000000000000000000000000000000000000000000000000000030d4000000000000000000000000000000000000000000000000000000000000000000000000000000000000000000000000000000000000000000000000000000002000000000000000000000000779877a7b0d9e8603169ddbd7836e478b46247890000000000000000000000000000000000000000000000000074799a2cc8c76300000000000000000000000000000000000000000000000000000000000001a000000000000000000000000000000000000000000000000000000000000002c000000000000000000000000000000000000000000000000000000000000002e038e7f36920058016b8217e2ad873fde2bdac7388b2e5dca585acffccb789439900000000000000000000000000000000000000000000000000000000000001000000000000000000000000000000000000000000000000000000000000000001000000000000000000000000842dc0443ac0cc6423bb7d64cf54d4e4b6a244de000000000000000000000000000000000000000000000000000000000000008000000000000000000000000000000000000000000000000000000000000003f3000000000000000000000000000000000000000000000000000000000000004196bfd20f3db1f6e78bfec633ec3968c7ceffbf335968474a7103172ba565c30c4a46fa53f2016e5dd5674c0a9ca7e571f793d49fde637eb62e257fce344e32251b0000000000000000000000000000000000000000000000000000000000000000000000000000000000000000000000000000000000000000000000000000000000000000000000000000000000000000000000000000000000000000000000",
          "blockHash": "0x5dac4948bfc34e85173d80f42ccb33d2caddef3d163f0cc8cae5faee6e5e0c4b",
          "blockNumber": "0x6c258c",
          "transactionHash": "0x4a007ab9bbeedf2be2cf4e3b982265f3d7376b4a584d0d8fc10be6b417852b8b",
          "transactionIndex": "0x56",
          "logIndex": "0x7d",
          "removed": false
        },
        {
          "address": "0x53d1d42c154934ff03ed26579bb88c9a4834f698",
          "topics": [
            "0x5c14165f6856a1581f59f3ac16bfaa8f38675bf8a7c662ebcb8aa362151df9e0",
            "0x38e7f36920058016b8217e2ad873fde2bdac7388b2e5dca585acffccb7894399",
            "0x0000000000000000000000000000000000000000000000008f90b8876dee6538"
          ],
          "data": "0x000000000000000000000000bfcce88462d3a4190194b68365f833649f90a71b000000000000000000000000779877a7b0d9e8603169ddbd7836e478b46247890000000000000000000000000000000000000000000000000000000000000001000000000000000000000000842dc0443ac0cc6423bb7d64cf54d4e4b6a244de0000000000000000000000000000000000000000000000000074799a2cc8c763",
          "blockHash": "0x5dac4948bfc34e85173d80f42ccb33d2caddef3d163f0cc8cae5faee6e5e0c4b",
          "blockNumber": "0x6c258c",
          "transactionHash": "0x4a007ab9bbeedf2be2cf4e3b982265f3d7376b4a584d0d8fc10be6b417852b8b",
          "transactionIndex": "0x56",
          "logIndex": "0x7e",
          "removed": false
        },
        {
          "address": "0x53d1d42c154934ff03ed26579bb88c9a4834f698",
          "topics": [
            "0xe93bbd15ca47283a6360c516a31feb98e23705efee4ce064ed91aeb0de6ab827"
          ],
          "data": "0x38e7f36920058016b8217e2ad873fde2bdac7388b2e5dca585acffccb789439900000000000000000000000000000000000000000000000000000000000003f3",
          "blockHash": "0x5dac4948bfc34e85173d80f42ccb33d2caddef3d163f0cc8cae5faee6e5e0c4b",
          "blockNumber": "0x6c258c",
          "transactionHash": "0x4a007ab9bbeedf2be2cf4e3b982265f3d7376b4a584d0d8fc10be6b417852b8b",
          "transactionIndex": "0x56",
          "logIndex": "0x7f",
          "removed": false
        }
      ],
      "logsBloom": "0x0000000400004000000000000000000000000000000020000000000000800000000000000000000000000000080200000000000800004000000000000024000000000000000200000000000800000000000000040000200000000000000020000000000000010000000000001000000000000000080000010000001010000800400000000000000000100000000080000000000000000000000000000000000002000000000008040000000000000000000000000000000000010000000100000000000200000014000000000008000000000000000000010000020000000000001000200000000040000400000000000400c000000000000200000000000000",
      "type": "0x2",
      "transactionHash": "0x4a007ab9bbeedf2be2cf4e3b982265f3d7376b4a584d0d8fc10be6b417852b8b",
      "transactionIndex": "0x56",
      "blockHash": "0x5dac4948bfc34e85173d80f42ccb33d2caddef3d163f0cc8cae5faee6e5e0c4b",
      "blockNumber": "0x6c258c",
      "gasUsed": "0x86c3d",
      "effectiveGasPrice": "0x1ddc4789",
      "from": "0x842dc0443ac0cc6423bb7d64cf54d4e4b6a244de",
      "to": "0x53d1d42c154934ff03ed26579bb88c9a4834f698",
      "contractAddress": null
    }
  ],
  "libraries": [],
  "pending": [],
  "returns": {},
  "timestamp": 1731743930,
  "chain": 11155111,
  "commit": "4f7dab86"
}