{
  "transactions": [
    {
      "hash": "0xfe6b5e0b627d30d383f77f58ee2eacc6d788712058d10ab0ea583b17c924b40d",
      "transactionType": "CALL",
      "contractName": null,
      "contractAddress": "0x53d1d42c154934ff03ed26579bb88c9a4834f698",
      "function": "createInvitation(uint64,address,uint256,bytes)",
      "arguments": [
        "10344971235874465080",
        "0x84635087Dd562dA5ef3eF23809604982b930316F",
        "1",
        "0x96bfd20f3db1f6e78bfec633ec3968c7ceffbf335968474a7103172ba565c30c4a46fa53f2016e5dd5674c0a9ca7e571f793d49fde637eb62e257fce344e32251b"
      ],
      "transaction": {
        "from": "0x842dc0443ac0cc6423bb7d64cf54d4e4b6a244de",
        "to": "0x53d1d42c154934ff03ed26579bb88c9a4834f698",
        "gas": "0xba24c",
        "value": "0x0",
        "input": "0x31ac8f6c0000000000000000000000000000000000000000000000008f90b8876dee653800000000000000000000000084635087dd562da5ef3ef23809604982b930316f00000000000000000000000000000000000000000000000000000000000000010000000000000000000000000000000000000000000000000000000000000080000000000000000000000000000000000000000000000000000000000000004196bfd20f3db1f6e78bfec633ec3968c7ceffbf335968474a7103172ba565c30c4a46fa53f2016e5dd5674c0a9ca7e571f793d49fde637eb62e257fce344e32251b00000000000000000000000000000000000000000000000000000000000000",
        "nonce": "0xf",
        "chainId": "0xaa36a7"
      },
      "additionalContracts": [],
      "isFixedGasLimit": false
    }
  ],
  "receipts": [
    {
      "status": "0x1",
      "cumulativeGasUsed": "0xa919e1",
      "logs": [
        {
          "address": "0x878c92fd89d8e0b93dc0a3c907a2adc7577e39c5",
          "topics": [
            "0x38b331f00373c8b0f9af5a4273ca1b91e894fec999bfa4ec787e8c90a5c8b05c"
          ],
          "data": "0x00000000000000000000000000000000000000000000000000000000000003f700000000000000000000000000000000000000000000000000000000000000400000000000000000000000000000000000000000000000000000000000000000",
          "blockHash": "0x2af860dcea6af28c353d619f61888a645e16c210a39c517e6decd978d9a5c16b",
          "blockNumber": "0x6c28e5",
          "transactionHash": "0xfe6b5e0b627d30d383f77f58ee2eacc6d788712058d10ab0ea583b17c924b40d",
          "transactionIndex": "0x3c",
          "logIndex": "0x6c",
          "removed": false
        },
        {
          "address": "0x779877a7b0d9e8603169ddbd7836e478b4624789",
          "topics": [
            "0x8c5be1e5ebec7d5bd14f71427d1e84f3dd0314c0f7b2291e5b200ac8c7c3b925",
            "0x00000000000000000000000053d1d42c154934ff03ed26579bb88c9a4834f698",
            "0x0000000000000000000000000bf3de8c5d3e8a2b34d2beeb17abfcebaf363a59"
          ],
          "data": "0x00000000000000000000000000000000000000000000000000747c679298c3d5",
          "blockHash": "0x2af860dcea6af28c353d619f61888a645e16c210a39c517e6decd978d9a5c16b",
          "blockNumber": "0x6c28e5",
          "transactionHash": "0xfe6b5e0b627d30d383f77f58ee2eacc6d788712058d10ab0ea583b17c924b40d",
          "transactionIndex": "0x3c",
          "logIndex": "0x6d",
          "removed": false
        },
        {
          "address": "0x779877a7b0d9e8603169ddbd7836e478b4624789",
          "topics": [
            "0xddf252ad1be2c89b69c2b068fc378daa952ba7f163c4a11628f55a4df523b3ef",
            "0x00000000000000000000000053d1d42c154934ff03ed26579bb88c9a4834f698",
            "0x0000000000000000000000008f35b097022135e0f46831f798a240cc8c4b0b01"
          ],
          "data": "0x00000000000000000000000000000000000000000000000000747c679298c3d5",
          "blockHash": "0x2af860dcea6af28c353d619f61888a645e16c210a39c517e6decd978d9a5c16b",
          "blockNumber": "0x6c28e5",
          "transactionHash": "0xfe6b5e0b627d30d383f77f58ee2eacc6d788712058d10ab0ea583b17c924b40d",
          "transactionIndex": "0x3c",
          "logIndex": "0x6e",
          "removed": false
        },
        {
          "address": "0x779877a7b0d9e8603169ddbd7836e478b4624789",
          "topics": [
            "0x8c5be1e5ebec7d5bd14f71427d1e84f3dd0314c0f7b2291e5b200ac8c7c3b925",
            "0x00000000000000000000000053d1d42c154934ff03ed26579bb88c9a4834f698",
            "0x0000000000000000000000000bf3de8c5d3e8a2b34d2beeb17abfcebaf363a59"
          ],
          "data": "0x0000000000000000000000000000000000000000000000000000000000000000",
          "blockHash": "0x2af860dcea6af28c353d619f61888a645e16c210a39c517e6decd978d9a5c16b",
          "blockNumber": "0x6c28e5",
          "transactionHash": "0xfe6b5e0b627d30d383f77f58ee2eacc6d788712058d10ab0ea583b17c924b40d",
          "transactionIndex": "0x3c",
          "logIndex": "0x6f",
          "removed": false
        },
        {
          "address": "0x8f35b097022135e0f46831f798a240cc8c4b0b01",
          "topics": [
            "0xd0c3c799bf9e2639de44391e7f524d229b2b55f5b1ea94b2bf7da42f7243dddd"
          ],
          "data": "0x0000000000000000000000000000000000000000000000000000000000000020000000000000000000000000000000000000000000000000de41ba4fc9d91ad900000000000000000000000053d1d42c154934ff03ed26579bb88c9a4834f69800000000000000000000000084635087dd562da5ef3ef23809604982b930316f00000000000000000000000000000000000000000000000000000000000000660000000000000000000000000000000000000000000000000000000000030d4000000000000000000000000000000000000000000000000000000000000000000000000000000000000000000000000000000000000000000000000000000004000000000000000000000000779877a7b0d9e8603169ddbd7836e478b462478900000000000000000000000000000000000000000000000000747c679298c3d500000000000000000000000000000000000000000000000000000000000001a000000000000000000000000000000000000000000000000000000000000002c000000000000000000000000000000000000000000000000000000000000002e072f04ed61e9366b0cfc8b83952edb0ef12668cce90b0a10672b382c4ef7f07f600000000000000000000000000000000000000000000000000000000000001000000000000000000000000000000000000000000000000000000000000000001000000000000000000000000842dc0443ac0cc6423bb7d64cf54d4e4b6a244de000000000000000000000000000000000000000000000000000000000000008000000000000000000000000000000000000000000000000000000000000003f7000000000000000000000000000000000000000000000000000000000000004196bfd20f3db1f6e78bfec633ec3968c7ceffbf335968474a7103172ba565c30c4a46fa53f2016e5dd5674c0a9ca7e571f793d49fde637eb62e257fce344e32251b0000000000000000000000000000000000000000000000000000000000000000000000000000000000000000000000000000000000000000000000000000000000000000000000000000000000000000000000000000000000000000000000",
          "blockHash": "0x2af860dcea6af28c353d619f61888a645e16c210a39c517e6decd978d9a5c16b",
          "blockNumber": "0x6c28e5",
          "transactionHash": "0xfe6b5e0b627d30d383f77f58ee2eacc6d788712058d10ab0ea583b17c924b40d",
          "transactionIndex": "0x3c",
          "logIndex": "0x70",
          "removed": false
        },
        {
          "address": "0x53d1d42c154934ff03ed26579bb88c9a4834f698",
          "topics": [
            "0x5c14165f6856a1581f59f3ac16bfaa8f38675bf8a7c662ebcb8aa362151df9e0",
            "0x72f04ed61e9366b0cfc8b83952edb0ef12668cce90b0a10672b382c4ef7f07f6",
            "0x0000000000000000000000000000000000000000000000008f90b8876dee6538"
          ],
          "data": "0x00000000000000000000000084635087dd562da5ef3ef23809604982b930316f000000000000000000000000779877a7b0d9e8603169ddbd7836e478b46247890000000000000000000000000000000000000000000000000000000000000001000000000000000000000000842dc0443ac0cc6423bb7d64cf54d4e4b6a244de00000000000000000000000000000000000000000000000000747c679298c3d5",
          "blockHash": "0x2af860dcea6af28c353d619f61888a645e16c210a39c517e6decd978d9a5c16b",
          "blockNumber": "0x6c28e5",
          "transactionHash": "0xfe6b5e0b627d30d383f77f58ee2eacc6d788712058d10ab0ea583b17c924b40d",
          "transactionIndex": "0x3c",
          "logIndex": "0x71",
          "removed": false
        },
        {
          "address": "0x53d1d42c154934ff03ed26579bb88c9a4834f698",
          "topics": [
            "0xe93bbd15ca47283a6360c516a31feb98e23705efee4ce064ed91aeb0de6ab827"
          ],
          "data": "0x72f04ed61e9366b0cfc8b83952edb0ef12668cce90b0a10672b382c4ef7f07f600000000000000000000000000000000000000000000000000000000000003f7",
          "blockHash": "0x2af860dcea6af28c353d619f61888a645e16c210a39c517e6decd978d9a5c16b",
          "blockNumber": "0x6c28e5",
          "transactionHash": "0xfe6b5e0b627d30d383f77f58ee2eacc6d788712058d10ab0ea583b17c924b40d",
          "transactionIndex": "0x3c",
          "logIndex": "0x72",
          "removed": false
        }
      ],
      "logsBloom": "0x0000000400004000000000000000000000000000000020000000000000800000000000000000000000000000080200000000000800004000000000000024000000000000000000080000000800000000000000040000200000000000000020000000000000010000000000001000000000000000080000010000001000000800400000000000000000000000000080100000000000000000000000000000000002000000000008040000000000000000000000000000000000010000000100000000000200000014000000000008000000000000000000010000020000000000001000200000000040000400000000000400c000000000000200000000000000",
      "type": "0x2",
      "transactionHash": "0xfe6b5e0b627d30d383f77f58ee2eacc6d788712058d10ab0ea583b17c924b40d",
      "transactionIndex": "0x3c",
      "blockHash": "0x2af860dcea6af28c353d619f61888a645e16c210a39c517e6decd978d9a5c16b",
      "blockNumber": "0x6c28e5",
      "gasUsed": "0x86c3d",
      "effectiveGasPrice": "0x1f45b65c",
      "from": "0x842dc0443ac0cc6423bb7d64cf54d4e4b6a244de",
      "to": "0x53d1d42c154934ff03ed26579bb88c9a4834f698",
      "contractAddress": null
    }
  ],
  "libraries": [],
  "pending": [],
  "returns": {},
  "timestamp": 1731754945,
  "chain": 11155111,
  "commit": "66fdf2e9"
}