{
  "transactions": [
    {
      "hash": "0x9052990cad642935f5dc1645edcf08eede3031e1262c461ca75a8be39d85fb51",
      "transactionType": "CALL",
      "contractName": null,
      "contractAddress": "0x582bec27d96ada0e958048208dd2953a6b642c6e",
      "function": "createInvitation(uint64,address,uint256,bytes)",
      "arguments": [
        "10344971235874465080",
        "0x15B891DeC2a285753E52E2c697fF372aa2741218",
        "1",
        "0x7c86662e830fb67caa9de159bba5a0000ecb42092f7551f434879cdf26bb86db70d3946847ea5a5a67e0b7c63b60b5c34b73b0ac4c2f54984f0156dfbd0f0c9a1c"
      ],
      "transaction": {
        "from": "0x842dc0443ac0cc6423bb7d64cf54d4e4b6a244de",
        "to": "0x582bec27d96ada0e958048208dd2953a6b642c6e",
        "gas": "0xc30e4",
        "value": "0x0",
        "input": "0x31ac8f6c0000000000000000000000000000000000000000000000008f90b8876dee653800000000000000000000000015b891dec2a285753e52e2c697ff372aa27412180000000000000000000000000000000000000000000000000000000000000001000000000000000000000000000000000000000000000000000000000000008000000000000000000000000000000000000000000000000000000000000000417c86662e830fb67caa9de159bba5a0000ecb42092f7551f434879cdf26bb86db70d3946847ea5a5a67e0b7c63b60b5c34b73b0ac4c2f54984f0156dfbd0f0c9a1c00000000000000000000000000000000000000000000000000000000000000",
        "nonce": "0x8",
        "chainId": "0xaa36a7"
      },
      "additionalContracts": [],
      "isFixedGasLimit": false
    }
  ],
  "receipts": [
    {
      "status": "0x1",
      "cumulativeGasUsed": "0x93565d",
      "logs": [
        {
          "address": "0x878c92fd89d8e0b93dc0a3c907a2adc7577e39c5",
          "topics": [
            "0x38b331f00373c8b0f9af5a4273ca1b91e894fec999bfa4ec787e8c90a5c8b05c"
          ],
          "data": "0x00000000000000000000000000000000000000000000000000000000000003f000000000000000000000000000000000000000000000000000000000000000400000000000000000000000000000000000000000000000000000000000000000",
          "blockHash": "0xde286f43665339ce257654fb5c584728201ed0735e8ab103019e89eefa279761",
          "blockNumber": "0x6c21f2",
          "transactionHash": "0x9052990cad642935f5dc1645edcf08eede3031e1262c461ca75a8be39d85fb51",
          "transactionIndex": "0x2f",
          "logIndex": "0x3c",
          "removed": false
        },
        {
          "address": "0x779877a7b0d9e8603169ddbd7836e478b4624789",
          "topics": [
            "0x8c5be1e5ebec7d5bd14f71427d1e84f3dd0314c0f7b2291e5b200ac8c7c3b925",
            "0x000000000000000000000000582bec27d96ada0e958048208dd2953a6b642c6e",
            "0x0000000000000000000000000bf3de8c5d3e8a2b34d2beeb17abfcebaf363a59"
          ],
          "data": "0x000000000000000000000000000000000000000000000000009cf24e65059127",
          "blockHash": "0xde286f43665339ce257654fb5c584728201ed0735e8ab103019e89eefa279761",
          "blockNumber": "0x6c21f2",
          "transactionHash": "0x9052990cad642935f5dc1645edcf08eede3031e1262c461ca75a8be39d85fb51",
          "transactionIndex": "0x2f",
          "logIndex": "0x3d",
          "removed": false
        },
        {
          "address": "0x779877a7b0d9e8603169ddbd7836e478b4624789",
          "topics": [
            "0xddf252ad1be2c89b69c2b068fc378daa952ba7f163c4a11628f55a4df523b3ef",
            "0x000000000000000000000000582bec27d96ada0e958048208dd2953a6b642c6e",
            "0x0000000000000000000000008f35b097022135e0f46831f798a240cc8c4b0b01"
          ],
          "data": "0x000000000000000000000000000000000000000000000000009cf24e65059127",
          "blockHash": "0xde286f43665339ce257654fb5c584728201ed0735e8ab103019e89eefa279761",
          "blockNumber": "0x6c21f2",
          "transactionHash": "0x9052990cad642935f5dc1645edcf08eede3031e1262c461ca75a8be39d85fb51",
          "transactionIndex": "0x2f",
          "logIndex": "0x3e",
          "removed": false
        },
        {
          "address": "0x779877a7b0d9e8603169ddbd7836e478b4624789",
          "topics": [
            "0x8c5be1e5ebec7d5bd14f71427d1e84f3dd0314c0f7b2291e5b200ac8c7c3b925",
            "0x000000000000000000000000582bec27d96ada0e958048208dd2953a6b642c6e",
            "0x0000000000000000000000000bf3de8c5d3e8a2b34d2beeb17abfcebaf363a59"
          ],
          "data": "0x0000000000000000000000000000000000000000000000000000000000000000",
          "blockHash": "0xde286f43665339ce257654fb5c584728201ed0735e8ab103019e89eefa279761",
          "blockNumber": "0x6c21f2",
          "transactionHash": "0x9052990cad642935f5dc1645edcf08eede3031e1262c461ca75a8be39d85fb51",
          "transactionIndex": "0x2f",
          "logIndex": "0x3f",
          "removed": false
        },
        {
          "address": "0x8f35b097022135e0f46831f798a240cc8c4b0b01",
          "topics": [
            "0xd0c3c799bf9e2639de44391e7f524d229b2b55f5b1ea94b2bf7da42f7243dddd"
          ],
          "data": "0x0000000000000000000000000000000000000000000000000000000000000020000000000000000000000000000000000000000000000000de41ba4fc9d91ad9000000000000000000000000582bec27d96ada0e958048208dd2953a6b642c6e00000000000000000000000015b891dec2a285753e52e2c697ff372aa274121800000000000000000000000000000000000000000000000000000000000000610000000000000000000000000000000000000000000000000000000000030d4000000000000000000000000000000000000000000000000000000000000000000000000000000000000000000000000000000000000000000000000000000000000000000000000000000000779877a7b0d9e8603169ddbd7836e478b4624789000000000000000000000000000000000000000000000000009cf24e6505912700000000000000000000000000000000000000000000000000000000000001a000000000000000000000000000000000000000000000000000000000000002c000000000000000000000000000000000000000000000000000000000000002e0948d4a08602117e932cae62b7602a400a51965ec474a4f7847b580a44f06618600000000000000000000000000000000000000000000000000000000000001000000000000000000000000000000000000000000000000000000000000000001000000000000000000000000842dc0443ac0cc6423bb7d64cf54d4e4b6a244de000000000000000000000000000000000000000000000000000000000000008000000000000000000000000000000000000000000000000000000000000003f000000000000000000000000000000000000000000000000000000000000000417c86662e830fb67caa9de159bba5a0000ecb42092f7551f434879cdf26bb86db70d3946847ea5a5a67e0b7c63b60b5c34b73b0ac4c2f54984f0156dfbd0f0c9a1c0000000000000000000000000000000000000000000000000000000000000000000000000000000000000000000000000000000000000000000000000000000000000000000000000000000000000000000000000000000000000000000000",
          "blockHash": "0xde286f43665339ce257654fb5c584728201ed0735e8ab103019e89eefa279761",
          "blockNumber": "0x6c21f2",
          "transactionHash": "0x9052990cad642935f5dc1645edcf08eede3031e1262c461ca75a8be39d85fb51",
          "transactionIndex": "0x2f",
          "logIndex": "0x40",
          "removed": false
        },
        {
          "address": "0x582bec27d96ada0e958048208dd2953a6b642c6e",
          "topics": [
            "0x5c14165f6856a1581f59f3ac16bfaa8f38675bf8a7c662ebcb8aa362151df9e0",
            "0x948d4a08602117e932cae62b7602a400a51965ec474a4f7847b580a44f066186",
            "0x0000000000000000000000000000000000000000000000008f90b8876dee6538"
          ],
          "data": "0x00000000000000000000000015b891dec2a285753e52e2c697ff372aa2741218000000000000000000000000779877a7b0d9e8603169ddbd7836e478b46247890000000000000000000000000000000000000000000000000000000000000001000000000000000000000000842dc0443ac0cc6423bb7d64cf54d4e4b6a244de000000000000000000000000000000000000000000000000009cf24e65059127",
          "blockHash": "0xde286f43665339ce257654fb5c584728201ed0735e8ab103019e89eefa279761",
          "blockNumber": "0x6c21f2",
          "transactionHash": "0x9052990cad642935f5dc1645edcf08eede3031e1262c461ca75a8be39d85fb51",
          "transactionIndex": "0x2f",
          "logIndex": "0x41",
          "removed": false
        },
        {
          "address": "0x582bec27d96ada0e958048208dd2953a6b642c6e",
          "topics": [
            "0xe93bbd15ca47283a6360c516a31feb98e23705efee4ce064ed91aeb0de6ab827"
          ],
          "data": "0x948d4a08602117e932cae62b7602a400a51965ec474a4f7847b580a44f06618600000000000000000000000000000000000000000000000000000000000003f0",
          "blockHash": "0xde286f43665339ce257654fb5c584728201ed0735e8ab103019e89eefa279761",
          "blockNumber": "0x6c21f2",
          "transactionHash": "0x9052990cad642935f5dc1645edcf08eede3031e1262c461ca75a8be39d85fb51",
          "transactionIndex": "0x2f",
          "logIndex": "0x42",
          "removed": false
        }
      ],
      "logsBloom": "0x00000004000040000000000000000000000000000000200000000000008000000000000000000000000000000002040000000000000040000000000000240000000000000000000000000008000000000000000402000000000000000000200000000000000100000020000010000000000000000800000100000010000008004000800000000000000000000000800000000000000200000000000000000000020000000000080400008000000000000000000000000000100100000001000000000002000000140000000000080000000000000000000100000000000000000010000000000000400004000000000004008000100000000200000000100000",
      "type": "0x2",
      "transactionHash": "0x9052990cad642935f5dc1645edcf08eede3031e1262c461ca75a8be39d85fb51",
      "transactionIndex": "0x2f",
      "blockHash": "0xde286f43665339ce257654fb5c584728201ed0735e8ab103019e89eefa279761",
      "blockNumber": "0x6c21f2",
      "gasUsed": "0x855f2",
      "effectiveGasPrice": "0x7491201",
      "from": "0x842dc0443ac0cc6423bb7d64cf54d4e4b6a244de",
      "to": "0x582bec27d96ada0e958048208dd2953a6b642c6e",
      "contractAddress": null
    }
  ],
  "libraries": [],
  "pending": [],
  "returns": {},
  "timestamp": 1731732121,
  "chain": 11155111,
  "commit": "fc6422e5"
}