{
  "transactions": [
    {
      "hash": "0xc1844f2485d5efcfcd73e5e9276b9a8786481e5f03ab578c91bcce085e23c3c4",
      "transactionType": "CALL",
      "contractName": null,
      "contractAddress": "0x6640f61beef7ced4ee72a95a48d1ce65b8ac5762",
      "function": "mochCcipReceive(uint256,address,bytes,uint64,uint64)",
      "arguments": [
        "1",
        "0xf78f634e7D8322aB0Fe0C061B9629Dc5EBEc43c3",
        "0xe90648da7514257352f849f9e70485fb3f528ed7523b85194f11df574ed86ab3286b4cfa96d1794b1bfe785ae79c684fa64e19b24338fe521f4418cbb4e661531c",
        "1",
        "16015286601757825753"
      ],
      "transaction": {
        "from": "0x842dc0443ac0cc6423bb7d64cf54d4e4b6a244de",
        "to": "0x6640f61beef7ced4ee72a95a48d1ce65b8ac5762",
        "gas": "0x7a796",
        "value": "0x0",
        "input": "0xdd883b130000000000000000000000000000000000000000000000000000000000000001000000000000000000000000f78f634e7d8322ab0fe0c061b9629dc5ebec43c300000000000000000000000000000000000000000000000000000000000000a00000000000000000000000000000000000000000000000000000000000000001000000000000000000000000000000000000000000000000de41ba4fc9d91ad90000000000000000000000000000000000000000000000000000000000000041e90648da7514257352f849f9e70485fb3f528ed7523b85194f11df574ed86ab3286b4cfa96d1794b1bfe785ae79c684fa64e19b24338fe521f4418cbb4e661531c00000000000000000000000000000000000000000000000000000000000000",
        "nonce": "0x1b",
        "chainId": "0x14a34"
      },
      "additionalContracts": [],
      "isFixedGasLimit": false
    }
  ],
  "receipts": [
    {
      "status": "0x1",
      "cumulativeGasUsed": "0xa0867",
      "logs": [
        {
          "address": "0x4e4af2a21ebf62850fd99eb6253e1efbb56098cd",
          "topics": [
            "0x38b331f00373c8b0f9af5a4273ca1b91e894fec999bfa4ec787e8c90a5c8b05c"
          ],
          "data": "0x0000000000000000000000000000000000000000000000000000000000000c9c00000000000000000000000000000000000000000000000000000000000000400000000000000000000000000000000000000000000000000000000000000000",
          "blockHash": "0x2085bdb511751e6c7e354c7011deb88c9b9ec509b064059f9e0d77dbf4907c70",
          "blockNumber": "0x112a7e5",
          "transactionHash": "0xc1844f2485d5efcfcd73e5e9276b9a8786481e5f03ab578c91bcce085e23c3c4",
          "transactionIndex": "0x4",
          "logIndex": "0x3",
          "removed": false
        }
      ],
      "logsBloom": "0x20000000000000000000000000000000000000000000000000000000000000000000080000000000000000000000000000000000000000000000000000040000000000000000000000000000000000000000000000200000000000000000000000000000000000000000000000000000000000000000000000000000000000000000000000000000000000000000000000000000000000000000000000000000000000000000000000000000000000000000000000000000000000000000000000000000000000000000000000000000000000000000000000000000000000000000000000000000400004000000000000000000000000000000000000000000",
      "type": "0x2",
      "transactionHash": "0xc1844f2485d5efcfcd73e5e9276b9a8786481e5f03ab578c91bcce085e23c3c4",
      "transactionIndex": "0x4",
      "blockHash": "0x2085bdb511751e6c7e354c7011deb88c9b9ec509b064059f9e0d77dbf4907c70",
      "blockNumber": "0x112a7e5",
      "gasUsed": "0x58ab5",
      "effectiveGasPrice": "0x187a5",
      "from": "0x842dc0443ac0cc6423bb7d64cf54d4e4b6a244de",
      "to": "0x6640f61beef7ced4ee72a95a48d1ce65b8ac5762",
      "contractAddress": null,
      "l1BaseFeeScalar": "0x44d",
      "l1BlobBaseFee": "0x1",
      "l1BlobBaseFeeScalar": "0xa118b",
      "l1Fee": "0xc34a0161",
      "l1GasPrice": "0x3e7c6d2a",
      "l1GasUsed": "0xb16"
    }
  ],
  "libraries": [],
  "pending": [],
  "returns": {},
  "timestamp": 1731767979,
  "chain": 84532,
  "commit": "e5e53838"
}