{
  "transactions": [
    {
      "hash": "0xd69e39f7361bce56581aeb1f8b7062df5759614136d9dc8f688f16bf47826632",
      "transactionType": "CALL",
      "contractName": null,
      "contractAddress": "0x445216b90703fdafd64a5037817c9f5e8377e79e",
      "function": "mochCcipReceive(uint256,address,bytes,uint64,uint64)",
      "arguments": [
        "1",
        "0xf78f634e7D8322aB0Fe0C061B9629Dc5EBEc43c3",
        "0xe90648da7514257352f849f9e70485fb3f528ed7523b85194f11df574ed86ab3286b4cfa96d1794b1bfe785ae79c684fa64e19b24338fe521f4418cbb4e661531c",
        "1",
        "16015286601757825753"
      ],
      "transaction": {
        "from": "0x842dc0443ac0cc6423bb7d64cf54d4e4b6a244de",
        "to": "0x445216b90703fdafd64a5037817c9f5e8377e79e",
        "gas": "0x81b1d",
        "value": "0x0",
        "input": "0xdd883b130000000000000000000000000000000000000000000000000000000000000001000000000000000000000000f78f634e7d8322ab0fe0c061b9629dc5ebec43c300000000000000000000000000000000000000000000000000000000000000a00000000000000000000000000000000000000000000000000000000000000001000000000000000000000000000000000000000000000000de41ba4fc9d91ad90000000000000000000000000000000000000000000000000000000000000041e90648da7514257352f849f9e70485fb3f528ed7523b85194f11df574ed86ab3286b4cfa96d1794b1bfe785ae79c684fa64e19b24338fe521f4418cbb4e661531c00000000000000000000000000000000000000000000000000000000000000",
        "nonce": "0x28",
        "chainId": "0x14a34"
      },
      "additionalContracts": [],
      "isFixedGasLimit": false
    }
  ],
  "receipts": [
    {
      "status": "0x1",
      "cumulativeGasUsed": "0x7013d",
      "logs": [
        {
          "address": "0x4e4af2a21ebf62850fd99eb6253e1efbb56098cd",
          "topics": [
            "0x38b331f00373c8b0f9af5a4273ca1b91e894fec999bfa4ec787e8c90a5c8b05c"
          ],
          "data": "0x0000000000000000000000000000000000000000000000000000000000000d2500000000000000000000000000000000000000000000000000000000000000400000000000000000000000000000000000000000000000000000000000000000",
          "blockHash": "0xf07f036a0c99f504ae87e265576f3689bcb27d14428e01837ad8fa34fa6bc041",
          "blockNumber": "0x112d2c4",
          "transactionHash": "0xd69e39f7361bce56581aeb1f8b7062df5759614136d9dc8f688f16bf47826632",
          "transactionIndex": "0x2",
          "logIndex": "0x2",
          "removed": false
        }
      ],
      "logsBloom": "0x20000000000000000000000000000000000000000000000000000000000000000000080000000000000000000000000000000000000000000000000000040000000000000000000000000000000000000000000000200000000000000000000000000000000000000000000000000000000000000000000000000000000000000000000000000000000000000000000000000000000000000000000000000000000000000000000000000000000000000000000000000000000000000000000000000000000000000000000000000000000000000000000000000000000000000000000000000000400004000000000000000000000000000000000000000000",
      "type": "0x2",
      "transactionHash": "0xd69e39f7361bce56581aeb1f8b7062df5759614136d9dc8f688f16bf47826632",
      "transactionIndex": "0x2",
      "blockHash": "0xf07f036a0c99f504ae87e265576f3689bcb27d14428e01837ad8fa34fa6bc041",
      "blockNumber": "0x112d2c4",
      "gasUsed": "0x58ae2",
      "effectiveGasPrice": "0xea374",
      "from": "0x842dc0443ac0cc6423bb7d64cf54d4e4b6a244de",
      "to": "0x445216b90703fdafd64a5037817c9f5e8377e79e",
      "contractAddress": null,
      "l1BaseFeeScalar": "0x44d",
      "l1BlobBaseFee": "0x1",
      "l1BlobBaseFeeScalar": "0xa118b",
      "l1Fee": "0x153d3be1",
      "l1GasPrice": "0x6cbbbfc",
      "l1GasUsed": "0xb16"
    }
  ],
  "libraries": [],
  "pending": [],
  "returns": {},
  "timestamp": 1731789930,
  "chain": 84532,
  "commit": "e3c6259b"
}