{
  "transactions": [
    {
      "hash": "0x3c729a1fbfeca9570620be404e01dfad4ffa0b252a333c8525596d9a08dec1e1",
      "transactionType": "CALL",
      "contractName": null,
      "contractAddress": "0xabf8250be844d6e88153b688a22d3030a88e42a1",
      "function": "approveInvitation(uint256,address,bytes,bytes)",
      "arguments": [
        "1",
        "0xf78f634e7D8322aB0Fe0C061B9629Dc5EBEc43c3",
        "0x7c1d25f5fe85b7a411a76e8ec7b71166e6f884a12f18da11b607f2b9244e24ac0d534fcd1cee42ad0a0444637a78318e14c62eeb918062d3a5e557336981de111c",
        "0xf309639603b90252aad92da2b12af74b23b2ce3416572b2ee7894908c323e098075a7c6d2c26465a25e18920317247ad845b1c9ac475ae98b5963d632b7935f41b"
      ],
      "transaction": {
        "from": "0x65a4032d935940b5b79546be4fa4f94adca62195",
        "to": "0xabf8250be844d6e88153b688a22d3030a88e42a1",
        "gas": "0x127af6",
        "value": "0x0",
        "input": "0xf08080570000000000000000000000000000000000000000000000000000000000000001000000000000000000000000f78f634e7d8322ab0fe0c061b9629dc5ebec43c30000000000000000000000000000000000000000000000000000000000000080000000000000000000000000000000000000000000000000000000000000010000000000000000000000000000000000000000000000000000000000000000417c1d25f5fe85b7a411a76e8ec7b71166e6f884a12f18da11b607f2b9244e24ac0d534fcd1cee42ad0a0444637a78318e14c62eeb918062d3a5e557336981de111c000000000000000000000000000000000000000000000000000000000000000000000000000000000000000000000000000000000000000000000000000041f309639603b90252aad92da2b12af74b23b2ce3416572b2ee7894908c323e098075a7c6d2c26465a25e18920317247ad845b1c9ac475ae98b5963d632b7935f41b00000000000000000000000000000000000000000000000000000000000000",
        "nonce": "0x1",
        "chainId": "0x14a34"
      },
      "additionalContracts": [],
      "isFixedGasLimit": false
    }
  ],
  "receipts": [
    {
      "status": "0x1",
      "cumulativeGasUsed": "0x1b342e",
      "logs": [
        {
          "address": "0x4e4af2a21ebf62850fd99eb6253e1efbb56098cd",
          "topics": [
            "0x38b331f00373c8b0f9af5a4273ca1b91e894fec999bfa4ec787e8c90a5c8b05c"
          ],
          "data": "0x0000000000000000000000000000000000000000000000000000000000000ca300000000000000000000000000000000000000000000000000000000000000400000000000000000000000000000000000000000000000000000000000000000",
          "blockHash": "0xae80b9a6c58e800895361d5ae65739c67ae327546997264b4100533897221c6a",
          "blockNumber": "0x112ad12",
          "transactionHash": "0x3c729a1fbfeca9570620be404e01dfad4ffa0b252a333c8525596d9a08dec1e1",
          "transactionIndex": "0xb",
          "logIndex": "0x11",
          "removed": false
        }
      ],
      "logsBloom": "0x20000000000000000000000000000000000000000000000000000000000000000000080000000000000000000000000000000000000000000000000000040000000000000000000000000000000000000000000000200000000000000000000000000000000000000000000000000000000000000000000000000000000000000000000000000000000000000000000000000000000000000000000000000000000000000000000000000000000000000000000000000000000000000000000000000000000000000000000000000000000000000000000000000000000000000000000000000000400004000000000000000000000000000000000000000000",
      "type": "0x2",
      "transactionHash": "0x3c729a1fbfeca9570620be404e01dfad4ffa0b252a333c8525596d9a08dec1e1",
      "transactionIndex": "0xb",
      "blockHash": "0xae80b9a6c58e800895361d5ae65739c67ae327546997264b4100533897221c6a",
      "blockNumber": "0x112ad12",
      "gasUsed": "0xca2d9",
      "effectiveGasPrice": "0x187a7",
      "from": "0x65a4032d935940b5b79546be4fa4f94adca62195",
      "to": "0xabf8250be844d6e88153b688a22d3030a88e42a1",
      "contractAddress": null,
      "l1BaseFeeScalar": "0x44d",
      "l1BlobBaseFee": "0x1",
      "l1BlobBaseFeeScalar": "0xa118b",
      "l1Fee": "0x83135c6a",
      "l1GasPrice": "0x210e542a",
      "l1GasUsed": "0xe11"
    }
  ],
  "libraries": [],
  "pending": [],
  "returns": {},
  "timestamp": 1731770629,
  "chain": 84532,
  "commit": "e5e53838"
}