{
  "transactions": [
    {
      "hash": "0xba0f866c9c8bb6602b6a33e5c67a0c75ae1cad6ca7f3272baa919e7c2ea8f118",
      "transactionType": "CALL",
      "contractName": null,
      "contractAddress": "0x900e61f9cf646453aa208e423372b87fa0c53846",
      "function": "createInvitation(uint64,address,string)",
      "arguments": [
        "16015286601757825753",
        "0x900E61f9CF646453aa208e423372B87FA0C53846",
        "Hello, this is an invitation!"
      ],
      "transaction": {
        "from": "0x842dc0443ac0cc6423bb7d64cf54d4e4b6a244de",
        "to": "0x900e61f9cf646453aa208e423372b87fa0c53846",
        "gas": "0x31511",
        "value": "0x0",
        "input": "0xbb731619000000000000000000000000000000000000000000000000de41ba4fc9d91ad9000000000000000000000000900e61f9cf646453aa208e423372b87fa0c538460000000000000000000000000000000000000000000000000000000000000060000000000000000000000000000000000000000000000000000000000000001d48656c6c6f2c207468697320697320616e20696e7669746174696f6e21000000",
        "nonce": "0x2",
        "chainId": "0x14a34"
      },
      "additionalContracts": [],
      "isFixedGasLimit": false
    }
  ],
  "receipts": [
    {
      "status": "0x1",
      "cumulativeGasUsed": "0x401eb",
      "logs": [
        {
          "address": "0xe4ab69c077896252fafbd49efd26b5d171a32410",
          "topics": [
            "0x8c5be1e5ebec7d5bd14f71427d1e84f3dd0314c0f7b2291e5b200ac8c7c3b925",
            "0x000000000000000000000000900e61f9cf646453aa208e423372b87fa0c53846",
            "0x000000000000000000000000d3b06cebf099ce7da4accf578aaebfdbd6e88a93"
          ],
          "data": "0x00000000000000000000000000000000000000000000000004355047acf94b99",
          "blockHash": "0x7a2ccff94e05115566a9d71593697869798bd026e807e80ac7c21db23ad9c84a",
          "blockNumber": "0x111ec61",
          "transactionHash": "0xba0f866c9c8bb6602b6a33e5c67a0c75ae1cad6ca7f3272baa919e7c2ea8f118",
          "transactionIndex": "0x3",
          "logIndex": "0x2",
          "removed": false
        },
        {
          "address": "0xe4ab69c077896252fafbd49efd26b5d171a32410",
          "topics": [
            "0x8c5be1e5ebec7d5bd14f71427d1e84f3dd0314c0f7b2291e5b200ac8c7c3b925",
            "0x000000000000000000000000900e61f9cf646453aa208e423372b87fa0c53846",
            "0x000000000000000000000000d3b06cebf099ce7da4accf578aaebfdbd6e88a93"
          ],
          "data": "0x0000000000000000000000000000000000000000000000000000000000000000",
          "blockHash": "0x7a2ccff94e05115566a9d71593697869798bd026e807e80ac7c21db23ad9c84a",
          "blockNumber": "0x111ec61",
          "transactionHash": "0xba0f866c9c8bb6602b6a33e5c67a0c75ae1cad6ca7f3272baa919e7c2ea8f118",
          "transactionIndex": "0x3",
          "logIndex": "0x3",
          "removed": false
        },
        {
          "address": "0xe4ab69c077896252fafbd49efd26b5d171a32410",
          "topics": [
            "0xddf252ad1be2c89b69c2b068fc378daa952ba7f163c4a11628f55a4df523b3ef",
            "0x000000000000000000000000900e61f9cf646453aa208e423372b87fa0c53846",
            "0x00000000000000000000000029a1f4ece9246f0042a9062fb89803fa8b1830cb"
          ],
          "data": "0x00000000000000000000000000000000000000000000000004355047acf94b99",
          "blockHash": "0x7a2ccff94e05115566a9d71593697869798bd026e807e80ac7c21db23ad9c84a",
          "blockNumber": "0x111ec61",
          "transactionHash": "0xba0f866c9c8bb6602b6a33e5c67a0c75ae1cad6ca7f3272baa919e7c2ea8f118",
          "transactionIndex": "0x3",
          "logIndex": "0x4",
          "removed": false
        },
        {
          "address": "0x29a1f4ece9246f0042a9062fb89803fa8b1830cb",
          "topics": [
            "0xd0c3c799bf9e2639de44391e7f524d229b2b55f5b1ea94b2bf7da42f7243dddd"
          ],
          "data": "0x00000000000000000000000000000000000000000000000000000000000000200000000000000000000000000000000000000000000000008f90b8876dee6538000000000000000000000000900e61f9cf646453aa208e423372b87fa0c53846000000000000000000000000900e61f9cf646453aa208e423372b87fa0c5384600000000000000000000000000000000000000000000000000000000000000280000000000000000000000000000000000000000000000000000000000030d4000000000000000000000000000000000000000000000000000000000000000000000000000000000000000000000000000000000000000000000000000000000000000000000000000000000e4ab69c077896252fafbd49efd26b5d171a3241000000000000000000000000000000000000000000000000004355047acf94b9900000000000000000000000000000000000000000000000000000000000001a0000000000000000000000000000000000000000000000000000000000000022000000000000000000000000000000000000000000000000000000000000002404b23093b5c36c44b84e364b26d1dafdf36da046128edb820cc0f0980bba9692100000000000000000000000000000000000000000000000000000000000000600000000000000000000000000000000000000000000000000000000000000020000000000000000000000000000000000000000000000000000000000000001d48656c6c6f2c207468697320697320616e20696e7669746174696f6e2100000000000000000000000000000000000000000000000000000000000000000000000000000000000000000000000000000000000000000000000000000000000000",
          "blockHash": "0x7a2ccff94e05115566a9d71593697869798bd026e807e80ac7c21db23ad9c84a",
          "blockNumber": "0x111ec61",
          "transactionHash": "0xba0f866c9c8bb6602b6a33e5c67a0c75ae1cad6ca7f3272baa919e7c2ea8f118",
          "transactionIndex": "0x3",
          "logIndex": "0x5",
          "removed": false
        },
        {
          "address": "0x900e61f9cf646453aa208e423372b87fa0c53846",
          "topics": [
            "0xe4944c59c67d1fefc868a434af7b9ae774555a287b5d4b61b9c768f8c0236ef0",
            "0x4b23093b5c36c44b84e364b26d1dafdf36da046128edb820cc0f0980bba96921",
            "0x000000000000000000000000000000000000000000000000de41ba4fc9d91ad9"
          ],
          "data": "0x000000000000000000000000900e61f9cf646453aa208e423372b87fa0c538460000000000000000000000000000000000000000000000000000000000000080000000000000000000000000e4ab69c077896252fafbd49efd26b5d171a3241000000000000000000000000000000000000000000000000004355047acf94b99000000000000000000000000000000000000000000000000000000000000001d48656c6c6f2c207468697320697320616e20696e7669746174696f6e21000000",
          "blockHash": "0x7a2ccff94e05115566a9d71593697869798bd026e807e80ac7c21db23ad9c84a",
          "blockNumber": "0x111ec61",
          "transactionHash": "0xba0f866c9c8bb6602b6a33e5c67a0c75ae1cad6ca7f3272baa919e7c2ea8f118",
          "transactionIndex": "0x3",
          "logIndex": "0x6",
          "removed": false
        },
        {
          "address": "0x900e61f9cf646453aa208e423372b87fa0c53846",
          "topics": [
            "0x3577938ce1fc9612c82b4490545522c0666444856196208f076570010389981f"
          ],
          "data": "0x",
          "blockHash": "0x7a2ccff94e05115566a9d71593697869798bd026e807e80ac7c21db23ad9c84a",
          "blockNumber": "0x111ec61",
          "transactionHash": "0xba0f866c9c8bb6602b6a33e5c67a0c75ae1cad6ca7f3272baa919e7c2ea8f118",
          "transactionIndex": "0x3",
          "logIndex": "0x7",
          "removed": false
        }
      ],
      "logsBloom": "0x00208000000000000000000020000000000000000000000000000000080000000000000000004000000000000000000000000000000000001000000000200000000000000000002000000008020000002000000000000000000000000000000000000000000000000000000000010000000000000000000000000410080010000000000100000000000800000000000000000020000000000000000000000000020400000020000400000401000000000000000000000000020100000000100000000002000000000000000000000008000080000000000000000000004000001010000002000020000000000000004004000000000000000000200000000000",
      "type": "0x2",
      "transactionHash": "0xba0f866c9c8bb6602b6a33e5c67a0c75ae1cad6ca7f3272baa919e7c2ea8f118",
      "transactionIndex": "0x3",
      "blockHash": "0x7a2ccff94e05115566a9d71593697869798bd026e807e80ac7c21db23ad9c84a",
      "blockNumber": "0x111ec61",
      "gasUsed": "0x21b89",
      "effectiveGasPrice": "0x653d",
      "from": "0x842dc0443ac0cc6423bb7d64cf54d4e4b6a244de",
      "to": "0x900e61f9cf646453aa208e423372b87fa0c53846",
      "contractAddress": null,
      "l1BaseFeeScalar": "0x44d",
      "l1BlobBaseFee": "0xdb2e5553",
      "l1BlobBaseFeeScalar": "0xa118b",
      "l1Fee": "0x404c67f855",
      "l1GasPrice": "0x3ad15684",
      "l1GasUsed": "0x710"
    }
  ],
  "libraries": [],
  "pending": [],
  "returns": {},
  "timestamp": 1731671970,
  "chain": 84532,
  "commit": "bcac8e78"
}