{
  "transactions": [
    {
      "hash": "0x2dbf6f5f4f02f6286f337230484dba9f4aff1a5bd9d550504aeda74760f226ec",
      "transactionType": "CALL",
      "contractName": null,
      "contractAddress": "0x582bec27d96ada0e958048208dd2953a6b642c6e",
      "function": "createInvitation(uint64,address,uint256,bytes)",
      "arguments": [
        "16015286601757825753",
        "0x900E61f9CF646453aa208e423372B87FA0C53846",
        "1",
        "0x"
      ],
      "transaction": {
        "from": "0x842dc0443ac0cc6423bb7d64cf54d4e4b6a244de",
        "to": "0x582bec27d96ada0e958048208dd2953a6b642c6e",
        "gas": "0xa2420",
        "value": "0x0",
        "input": "0x31ac8f6c000000000000000000000000000000000000000000000000de41ba4fc9d91ad9000000000000000000000000900e61f9cf646453aa208e423372b87fa0c53846000000000000000000000000000000000000000000000000000000000000000100000000000000000000000000000000000000000000000000000000000000800000000000000000000000000000000000000000000000000000000000000000",
        "nonce": "0x6",
        "chainId": "0x14a34"
      },
      "additionalContracts": [],
      "isFixedGasLimit": false
    }
  ],
  "receipts": [
    {
      "status": "0x1",
      "cumulativeGasUsed": "0x186c6e",
      "logs": [
        {
          "address": "0x4e4af2a21ebf62850fd99eb6253e1efbb56098cd",
          "topics": [
            "0x38b331f00373c8b0f9af5a4273ca1b91e894fec999bfa4ec787e8c90a5c8b05c"
          ],
          "data": "0x0000000000000000000000000000000000000000000000000000000000000b8400000000000000000000000000000000000000000000000000000000000000400000000000000000000000000000000000000000000000000000000000000000",
          "blockHash": "0xb7a9dcd8f2b5567f640a67c2fb911f9e5f96d4f4ae1a167fdfc7038ca67aa24a",
          "blockNumber": "0x1121c8c",
          "transactionHash": "0x2dbf6f5f4f02f6286f337230484dba9f4aff1a5bd9d550504aeda74760f226ec",
          "transactionIndex": "0xa",
          "logIndex": "0xc",
          "removed": false
        },
        {
          "address": "0xe4ab69c077896252fafbd49efd26b5d171a32410",
          "topics": [
            "0x8c5be1e5ebec7d5bd14f71427d1e84f3dd0314c0f7b2291e5b200ac8c7c3b925",
            "0x000000000000000000000000582bec27d96ada0e958048208dd2953a6b642c6e",
            "0x000000000000000000000000d3b06cebf099ce7da4accf578aaebfdbd6e88a93"
          ],
          "data": "0x00000000000000000000000000000000000000000000000002c8a3373215642a",
          "blockHash": "0xb7a9dcd8f2b5567f640a67c2fb911f9e5f96d4f4ae1a167fdfc7038ca67aa24a",
          "blockNumber": "0x1121c8c",
          "transactionHash": "0x2dbf6f5f4f02f6286f337230484dba9f4aff1a5bd9d550504aeda74760f226ec",
          "transactionIndex": "0xa",
          "logIndex": "0xd",
          "removed": false
        },
        {
          "address": "0xe4ab69c077896252fafbd49efd26b5d171a32410",
          "topics": [
            "0x8c5be1e5ebec7d5bd14f71427d1e84f3dd0314c0f7b2291e5b200ac8c7c3b925",
            "0x000000000000000000000000582bec27d96ada0e958048208dd2953a6b642c6e",
            "0x000000000000000000000000d3b06cebf099ce7da4accf578aaebfdbd6e88a93"
          ],
          "data": "0x0000000000000000000000000000000000000000000000000000000000000000",
          "blockHash": "0xb7a9dcd8f2b5567f640a67c2fb911f9e5f96d4f4ae1a167fdfc7038ca67aa24a",
          "blockNumber": "0x1121c8c",
          "transactionHash": "0x2dbf6f5f4f02f6286f337230484dba9f4aff1a5bd9d550504aeda74760f226ec",
          "transactionIndex": "0xa",
          "logIndex": "0xe",
          "removed": false
        },
        {
          "address": "0xe4ab69c077896252fafbd49efd26b5d171a32410",
          "topics": [
            "0xddf252ad1be2c89b69c2b068fc378daa952ba7f163c4a11628f55a4df523b3ef",
            "0x000000000000000000000000582bec27d96ada0e958048208dd2953a6b642c6e",
            "0x00000000000000000000000029a1f4ece9246f0042a9062fb89803fa8b1830cb"
          ],
          "data": "0x00000000000000000000000000000000000000000000000002c8a3373215642a",
          "blockHash": "0xb7a9dcd8f2b5567f640a67c2fb911f9e5f96d4f4ae1a167fdfc7038ca67aa24a",
          "blockNumber": "0x1121c8c",
          "transactionHash": "0x2dbf6f5f4f02f6286f337230484dba9f4aff1a5bd9d550504aeda74760f226ec",
          "transactionIndex": "0xa",
          "logIndex": "0xf",
          "removed": false
        },
        {
          "address": "0x29a1f4ece9246f0042a9062fb89803fa8b1830cb",
          "topics": [
            "0xd0c3c799bf9e2639de44391e7f524d229b2b55f5b1ea94b2bf7da42f7243dddd"
          ],
          "data": "0x00000000000000000000000000000000000000000000000000000000000000200000000000000000000000000000000000000000000000008f90b8876dee6538000000000000000000000000582bec27d96ada0e958048208dd2953a6b642c6e000000000000000000000000900e61f9cf646453aa208e423372b87fa0c53846000000000000000000000000000000000000000000000000000000000000002b0000000000000000000000000000000000000000000000000000000000030d4000000000000000000000000000000000000000000000000000000000000000000000000000000000000000000000000000000000000000000000000000000000000000000000000000000000e4ab69c077896252fafbd49efd26b5d171a3241000000000000000000000000000000000000000000000000002c8a3373215642a00000000000000000000000000000000000000000000000000000000000001a0000000000000000000000000000000000000000000000000000000000000026000000000000000000000000000000000000000000000000000000000000002802b9cee2831d8bd246935eca3f874264735344a664de70696c9001226b26b2e3b00000000000000000000000000000000000000000000000000000000000000a00000000000000000000000000000000000000000000000000000000000000001000000000000000000000000842dc0443ac0cc6423bb7d64cf54d4e4b6a244de00000000000000000000000000000000000000000000000000000000000000800000000000000000000000000000000000000000000000000000000000000b84000000000000000000000000000000000000000000000000000000000000000000000000000000000000000000000000000000000000000000000000000000000000000000000000000000000000000000000000000000000000000000000000",
          "blockHash": "0xb7a9dcd8f2b5567f640a67c2fb911f9e5f96d4f4ae1a167fdfc7038ca67aa24a",
          "blockNumber": "0x1121c8c",
          "transactionHash": "0x2dbf6f5f4f02f6286f337230484dba9f4aff1a5bd9d550504aeda74760f226ec",
          "transactionIndex": "0xa",
          "logIndex": "0x10",
          "removed": false
        },
        {
          "address": "0x582bec27d96ada0e958048208dd2953a6b642c6e",
          "topics": [
            "0x5c14165f6856a1581f59f3ac16bfaa8f38675bf8a7c662ebcb8aa362151df9e0",
            "0x2b9cee2831d8bd246935eca3f874264735344a664de70696c9001226b26b2e3b",
            "0x000000000000000000000000000000000000000000000000de41ba4fc9d91ad9"
          ],
          "data": "0x000000000000000000000000900e61f9cf646453aa208e423372b87fa0c53846000000000000000000000000e4ab69c077896252fafbd49efd26b5d171a324100000000000000000000000000000000000000000000000000000000000000001000000000000000000000000842dc0443ac0cc6423bb7d64cf54d4e4b6a244de00000000000000000000000000000000000000000000000002c8a3373215642a",
          "blockHash": "0xb7a9dcd8f2b5567f640a67c2fb911f9e5f96d4f4ae1a167fdfc7038ca67aa24a",
          "blockNumber": "0x1121c8c",
          "transactionHash": "0x2dbf6f5f4f02f6286f337230484dba9f4aff1a5bd9d550504aeda74760f226ec",
          "transactionIndex": "0xa",
          "logIndex": "0x11",
          "removed": false
        },
        {
          "address": "0x582bec27d96ada0e958048208dd2953a6b642c6e",
          "topics": [
            "0xe93bbd15ca47283a6360c516a31feb98e23705efee4ce064ed91aeb0de6ab827"
          ],
          "data": "0x2b9cee2831d8bd246935eca3f874264735344a664de70696c9001226b26b2e3b0000000000000000000000000000000000000000000000000000000000000b84",
          "blockHash": "0xb7a9dcd8f2b5567f640a67c2fb911f9e5f96d4f4ae1a167fdfc7038ca67aa24a",
          "blockNumber": "0x1121c8c",
          "transactionHash": "0x2dbf6f5f4f02f6286f337230484dba9f4aff1a5bd9d550504aeda74760f226ec",
          "transactionIndex": "0xa",
          "logIndex": "0x12",
          "removed": false
        }
      ],
      "logsBloom": "0x20208000000000000000000000000000000000000000200000000000000000000000080000004000000000000000040000000000000000000000000000240000000000000000000000000008020000002000000002200000000000000000000000000000000000000000000000010000000000000000000100000010080008000000800100000000000000000000800000000020000000000400000000000000020000000000000400008000000000000000000000000000020100400000100000000002000800040000000000000000000080000000000000000000000000000010000000000020400004000000004004008000100000000000200000100000",
      "type": "0x2",
      "transactionHash": "0x2dbf6f5f4f02f6286f337230484dba9f4aff1a5bd9d550504aeda74760f226ec",
      "transactionIndex": "0xa",
      "blockHash": "0xb7a9dcd8f2b5567f640a67c2fb911f9e5f96d4f4ae1a167fdfc7038ca67aa24a",
      "blockNumber": "0x1121c8c",
      "gasUsed": "0x6ef21",
      "effectiveGasPrice": "0x2fa",
      "from": "0x842dc0443ac0cc6423bb7d64cf54d4e4b6a244de",
      "to": "0x582bec27d96ada0e958048208dd2953a6b642c6e",
      "contractAddress": null,
      "l1BaseFeeScalar": "0x44d",
      "l1BlobBaseFee": "0x3346e274",
      "l1BlobBaseFeeScalar": "0xa118b",
      "l1Fee": "0xe616d5858",
      "l1GasPrice": "0x1db42592",
      "l1GasUsed": "0x6b2"
    }
  ],
  "libraries": [],
  "pending": [],
  "returns": {},
  "timestamp": 1731696634,
  "chain": 84532,
  "commit": "a1e50dcb"
}