{
  "transactions": [
    {
      "hash": "0x04a2bbca972862a7b2be578954d92024be3f1603054d9c36421c67904223a886",
      "transactionType": "CALL",
      "contractName": null,
      "contractAddress": "0xc6a3c5ce873481f0eb6bb2b172cdd6e27e8acff1",
      "function": "mochCcipReceive(uint256,address,bytes,uint64,uint64)",
      "arguments": [
        "1",
        "0xf78f634e7D8322aB0Fe0C061B9629Dc5EBEc43c3",
        "0x5cb69f5561b34a4244c1a91ade3d838effed20d3c03cb140dab91ff5db6faf7c7f0babe3275172b8db9adabc61780d7b9a6763271ac0ae25b30e000c93363b2e1b",
        "1",
        "10344971235874465080"
      ],
      "transaction": {
        "from": "0x842dc0443ac0cc6423bb7d64cf54d4e4b6a244de",
        "to": "0xc6a3c5ce873481f0eb6bb2b172cdd6e27e8acff1",
        "gas": "0x7a7c3",
        "value": "0x0",
        "input": "0xdd883b130000000000000000000000000000000000000000000000000000000000000001000000000000000000000000f78f634e7d8322ab0fe0c061b9629dc5ebec43c300000000000000000000000000000000000000000000000000000000000000a000000000000000000000000000000000000000000000000000000000000000010000000000000000000000000000000000000000000000008f90b8876dee653800000000000000000000000000000000000000000000000000000000000000415cb69f5561b34a4244c1a91ade3d838effed20d3c03cb140dab91ff5db6faf7c7f0babe3275172b8db9adabc61780d7b9a6763271ac0ae25b30e000c93363b2e1b00000000000000000000000000000000000000000000000000000000000000",
        "nonce": "0x1b",
        "chainId": "0xaa36a7"
      },
      "additionalContracts": [],
      "isFixedGasLimit": false
    }
  ],
  "receipts": [
    {
      "status": "0x1",
      "cumulativeGasUsed": "0x9fd4bd",
      "logs": [
        {
          "address": "0x878c92fd89d8e0b93dc0a3c907a2adc7577e39c5",
          "topics": [
            "0x38b331f00373c8b0f9af5a4273ca1b91e894fec999bfa4ec787e8c90a5c8b05c"
          ],
          "data": "0x000000000000000000000000000000000000000000000000000000000000040100000000000000000000000000000000000000000000000000000000000000400000000000000000000000000000000000000000000000000000000000000000",
          "blockHash": "0xe1f202a1f4f7828b64687bc36aa7e24eb1fd7a45c99c0f5258bf31304ba296c9",
          "blockNumber": "0x6c316b",
          "transactionHash": "0x04a2bbca972862a7b2be578954d92024be3f1603054d9c36421c67904223a886",
          "transactionIndex": "0x47",
          "logIndex": "0x5d",
          "removed": false
        }
      ],
      "logsBloom": "0x00000000000000000000000000000000000000000000000000000000000000000000000000000000000000000002000000000000000000000000000000040000000000000000000000000000000000000000000000000000000000000000000000000000000000000000000000000000000000000000000000000000000000000000000000000000000000000000000000000000000000000000000000000000000000000000000000000000000000000000000000000000000000000001000000000000000000000000000000000000000000000000000000000000000000000000000000000000400004000000000000000000000000000200000000000000",
      "type": "0x2",
      "transactionHash": "0x04a2bbca972862a7b2be578954d92024be3f1603054d9c36421c67904223a886",
      "transactionIndex": "0x47",
      "blockHash": "0xe1f202a1f4f7828b64687bc36aa7e24eb1fd7a45c99c0f5258bf31304ba296c9",
      "blockNumber": "0x6c316b",
      "gasUsed": "0x58ad6",
      "effectiveGasPrice": "0xd209b54",
      "from": "0x842dc0443ac0cc6423bb7d64cf54d4e4b6a244de",
      "to": "0xc6a3c5ce873481f0eb6bb2b172cdd6e27e8acff1",
      "contractAddress": null
    }
  ],
  "libraries": [],
  "pending": [],
  "returns": {},
  "timestamp": 1731782808,
  "chain": 11155111,
  "commit": "e3c6259b"
}